:100000000C9435010C9466010C9466010C94660105
:100010000C9466010C9466010C9466010C946601C4
:100020000C9466010C9466010C9466010C946601B4
:100030000C9466010C9466010C9466010C946601A4
:100040000C9466010C9466010C9466010C94660194
:100050000C9466010C9466010C9466010C947A046D
:100060000C9466010C94EE040C94C4040C94660188
:100070000C9466010C9466010C9466010C94660164
:100080000C9466010C9466010C9466010C94660154
:100090000C9466010C9466010C9466010C94660144
:1000A0000C9466010C9466010C9466010C94660134
:1000B0000C9466010C9466010C9466010C94660124
:1000C0000C9466010C9466010C9466010C94660114
:1000D0000C9466010C9466010C9466010C94660104
:1000E0000C9466010C9494010C948C010C94A50161
:1000F0000C94C7080C94CF020C941F030C94B20309
:100100000C9498010C94FC020C942D030C940B039A
:100110000C94B3010C949B010C94A1010C94CB01A1
:100120000C94C7010C94AB010C94C1010C94900188
:100130000C94BD010C9465030C94AF010C94B901AF
:100140000C9486010C94C6010000210024002700B5
:100150002A002D00300033000101000004010701D6
:100160000A0100002200250028002B002E0031008B
:10017000340002010000050108010B01000020000D
:100180002300260029002C002F003200000100006F
:10019000030106010901050505050705080808080A
:1001A000020202020A0A080804040404010101010F
:1001B000010101010303030303030303040707070A
:1001C0000C0C0C0C0C0C0C0C0202020206060606AF
:1001D000060606060B0B0B0B0B0B0B0B010210207C
:1001E000200808102040102040800201020108046D
:1001F0000201010204081020408080402010080401
:100200000201800402018040201008040201080459
:10021000020101020408102040800102040810209D
:10022000408000000A0B02090C0D0E0807030401B0
:1002300000000000000000000000000000000000BE
:10024000000000000000000000000000000012118B
:10025000100000000000000000000000000000008E
:100260000000000000000000C70811241FBECFEFEF
:10027000D1E2DEBFCDBF00E00CBF12E0A0E0B2E0F3
:10028000ECEFF1E100E00BBF02C007900D92AA393C
:10029000B107D9F723E0AAE9B2E001C01D92A23B61
:1002A000B207E1F711E0C5E3D1E000E006C0219715
:1002B0000109802FFE010E94F408C433D10780E0B9
:1002C0000807A9F70E9424050C94FC080C94000070
:1002D0008150823108F05AC0E82FF0E08827EC58AE
:1002E000FE4F8F4F0C94F4089401980186018C0105
:1002F0009001C6019B01A101A501AB01AF01B301B2
:10030000B901BD01C601C101C701CB0180918000C7
:100310008F77809380000895809180008F7DF9CF42
:1003200080918000877FF5CF84B58F7784BD089555
:1003300084B58F7DFBCF8091B0008F778093B00024
:1003400008958091B0008F7DF9CF809190008F77D4
:10035000809390000895809190008F7DF9CF8091D7
:100360009000877FF5CF8091A0008F778093A000C9
:1003700008958091A0008F7DF9CF8091A000877FA4
:10038000F5CF809120018F7780932001089580918F
:1003900020018F7DF9CF80912001877FF5CFCF930A
:1003A000DF93282F30E0F901EE5DFD4F8491F901D4
:1003B000E452FE4FD491F901EA56FE4FC491CC238A
:1003C000A1F081110E946801EC2FF0E0EE0FFF1FF9
:1003D000E458FE4FA591B491EC91ED2381E090E0BB
:1003E00009F480E0DF91CF91089580E090E0FACFAA
:1003F0001F93CF93DF93282F30E0F901EE5DFD4F7F
:100400008491F901E452FE4FD491F901EA56FE4F6E
:10041000C491CC23A9F0162F81110E946801EC2F02
:10042000F0E0EE0FFF1FEE59FE4FA591B4918FB78C
:10043000F894EC91111108C0D095DE23DC938FBFA6
:10044000DF91CF911F910895DE2BF8CFCF93DF93EB
:1004500090E0FC01E452FE4F24918A569E4FFC012D
:1004600084918823D1F090E0880F991FFC01E85B0C
:10047000FE4FA591B491FC01EE59FE4FC591D49168
:10048000623071F49FB7F8943C91822F809583235A
:100490008C93E8812E2B28839FBFDF91CF91089505
:1004A0008FB7F894EC912E2B2C938FBFF6CF3FB7DC
:1004B000F8948091110390911203A0911303B091CD
:1004C000140326B5A89B05C02F3F19F00196A11D66
:1004D000B11D3FBFBA2FA92F982F8827BC01CD018E
:1004E000620F711D811D911D42E0660F771F881FED
:1004F000991F4A95D1F708958F929F92AF92BF921C
:10050000CF92DF92EF92FF926B017C010E94570223
:100510004B015C01C114D104E104F104B9F00E9463
:100520005702681979098A099B09683E7340810559
:10053000910580F321E0C21AD108E108F10888EEA4
:10054000880E83E0981EA11CB11CE4CFFF90EF90B1
:10055000DF90CF90BF90AF909F908F900895CF93F2
:10056000C82F60E070E0CB010E947C0261E08C2F1C
:100570000E94F8016DE770E080E090E00E947C024C
:1005800060E08C2F0E94F8016DE770E080E090E061
:100590000E947C0260E08C2FCF910C94F801AF9206
:1005A000BF92CF92DF92EF92FF920F931F93CF9360
:1005B000DF936C017B018B01040F151FEB015E01C2
:1005C000AE18BF08C017D10759F06991D601ED9157
:1005D000FC910190F081E02DC6011995892B79F7E6
:1005E000C501DF91CF911F910F91FF90EF90DF90A8
:1005F000CF90BF90AF900895FC01538D448D252F6F
:1006000030E0842F90E0821B930B541710F0CF96AC
:10061000089501970895FC01918D828D981761F0DE
:10062000A28DAE0FBF2FB11D5D968C91928D9F5FF5
:100630009F73928F90E008958FEF9FEF0895FC01D4
:10064000918D828D981731F0828DE80FF11D858D87
:1006500090E008958FEF9FEF0895FC01918D228D1A
:10066000892F90E0805C9F4F821B91098F7399279F
:10067000089585E193E00E942D0321E0892B09F480
:1006800020E0822F0895FC01A48DA80FB92FB11D81
:10069000A35ABF4F2C91848D90E001968F739927B8
:1006A000848FA689B7892C93A089B1898C91837096
:1006B00080648C93938D848D981306C00288F3898F
:1006C000E02D80818F7D80830895EF92FF920F93BC
:1006D0001F93CF93DF93EC0181E0888F9B8D8C8DEE
:1006E00098131AC0E889F989808185FF15C09FB7E2
:1006F000F894EE89FF896083E889F98980818370A5
:10070000806480839FBF81E090E0DF91CF911F9153
:100710000F91FF90EF900895F62E0B8D10E00F5F74
:100720001F4F0F731127E02E8C8D8E110CC00FB64A
:1007300007FCFACFE889F989808185FFF5CFCE01E2
:100740000E944303F1CFEB8DEC0FFD2FF11DE35A17
:10075000FF4FF0829FB7F8940B8FEA89FB89808165
:100760008062CFCFCF93DF93EC01888D8823B9F0DF
:10077000AA89BB89E889F9898C9185FD03C08081AC
:1007800086FD0DC00FB607FCF7CF8C9185FFF2CF29
:10079000808185FFEDCFCE010E944303E9CFDF9139
:1007A000CF91089580E090E0892B29F00E943903D1
:1007B00081110E94000080E090E0892B49F080E0E8
:1007C00090E0892B29F00E94000081110E94000016
:1007D00080E090E0892B49F080E090E0892B29F0BF
:1007E0000E94000081110E94000080E090E0892BAF
:1007F00049F080E090E0892B29F00E9400008111EF
:100800000C94000008958FEF9FEF90930102809366
:10081000000260E084E00E94F80160E083E00E9452
:10082000F80160E082E00C94F8010F931F93CF93DE
:10083000DF93C091D202D091D302C817D90731F407
:10084000DF91CF911F910F910C940304009100024E
:100850001091010261E08C179D070CF060E084E0CC
:100860000E94F801C01BD10BD7FF03C0D195C195E1
:10087000D10961E0219709F060E083E00E94F8016E
:1008800061E082E0DF91CF911F910F910C94F8010C
:10089000FC0101900020E9F73197AF01481B590B8B
:1008A000BC0185E193E00C94CF020F931F93CF938B
:1008B000DF93CDB7DEB7A1970FB6F894DEBF0FBEBA
:1008C000CDBF19A2805D88A3CE0180960E94480406
:1008D0008C0184E792E00E944804800F911FA1964A
:1008E0000FB6F894DEBF0FBECDBFDF91CF911F9141
:1008F0000F9108951F920F920FB60F9211242F930C
:100900003F938F939F93AF93BF9380910D039091EB
:100910000E03A0910F03B091100330910C0323E05C
:10092000230F2D3758F50196A11DB11D20930C03FF
:1009300080930D0390930E03A0930F03B0931003C5
:100940008091110390911203A0911303B0911403AD
:100950000196A11DB11D8093110390931203A093E2
:100960001303B0931403BF91AF919F918F913F9167
:100970002F910F900FBE0F901F90189526E8230F10
:100980000296A11DB11DD2CF1F920F920FB60F92EA
:1009900011240BB60F922F933F934F935F936F9356
:1009A0007F938F939F93AF93BF93EF93FF9385E1D3
:1009B00093E00E944303FF91EF91BF91AF919F910C
:1009C0008F917F916F915F914F913F912F910F90F8
:1009D0000BBE0F900FBE0F901F9018951F920F9295
:1009E0000FB60F9211240BB60F922F938F939F93F4
:1009F000EF93FF93E0912503F09126038081E0912E
:100A00002B03F0912C0382FD1DC0908180912E0359
:100A10008F5F8F7320912F03821741F0E0912E0397
:100A2000F0E0EB5EFC4F958F80932E03FF91EF91EA
:100A30009F918F912F910F900BBE0F900FBE0F9033
:100A40001F9018958081F2CFCF93DF9300D000D014
:100A5000CDB7DEB7789484B5826084BD84B58160FB
:100A600084BD85B5826085BD85B5816085BD809179
:100A70006E00816080936E001092810080918100F1
:100A800082608093810080918100816080938100E9
:100A9000809180008160809380008091B1008460AB
:100AA0008093B1008091B00081608093B00080910C
:100AB0009100826080939100809191008160809389
:100AC0009100809190008160809390008091A100BE
:100AD00082608093A1008091A10081608093A10039
:100AE0008091A00081608093A000809121018260AC
:100AF0008093210180912101816080932101809167
:100B0000200181608093200180917A00846080932D
:100B10007A0080917A00826080937A0080917A00D6
:100B2000816080937A0080917A00806880937A0057
:100B30001092C100E0912503F091260382E08083AA
:100B4000E0912103F09122031082E0912303F091C0
:100B5000240380E1808310922D03E0912903F0911A
:100B60002A0386E08083E0912703F09128038081A7
:100B700080618083E0912703F09128038081886061
:100B80008083E0912703F09128038081806880832F
:100B9000E0912703F091280380818F7D808361E0BD
:100BA0008DE00E94260261E08DE00E94F80161E084
:100BB00082E00E94260260E082E00E94F80161E08B
:100BC00083E00E94260261E084E00E94260224E184
:100BD00032E03E832D8304E312E024E2E22E22E0A1
:100BE000F22E34E4C32E32E0D32E44ED52E05C8387
:100BF0004B838EEF92E09A8389834AE9642E42E028
:100C0000742E54EC852E52E0952E64E5A62E62E0FB
:100C1000B62E74E6472E72E0572EF2013080F2E0D5
:100C20004F0E511C62E0832D0E942602F5012080A8
:100C3000F2E0AF0EB11C62E0822D0E942602822DEE
:100C40000E94CF01F401819391934F01F3018193AD
:100C500091933F01832D0E94CF01E981FA81819315
:100C60009193FA83E983EB81FC8181939193FC83D7
:100C7000EB83F6018081F2E0CF0ED11C61E00E948F
:100C80002602F7018081F2E0EF0EF11C61E00E9484
:100C90002602F80180810E5F1F4F61E00E9426024C
:100CA000ED81FE8180813296FE83ED8361E00E94BA
:100CB0002602F2E74F16F2E05F0609F0AECF24E419
:100CC00032E03A832983E981FA8181919191FA8313
:100CD000E9830E94AF0229813A812255324099F777
:100CE00084E292E09A838983E981FA8181919191EA
:100CF000FA83E9830E94AF0229813A81225332406C
:100D000099F784E192E09A838983E981FA8181915C
:100D10009191FA83E9830E94AF0229813A8122529C
:100D2000324099F704E112E084E3E82E82E0F82EE5
:100D300094E2C92E92E0D92E84E492E09A838983CA
:100D4000E981FA8180813296FA83E98361E00E9429
:100D5000F801F6018081F2E0CF0ED11C61E00E9423
:100D6000F801F7018081F2E0EF0EF11C61E00E94D2
:100D7000F801F80180810E5F1F4F61E00E94F801C9
:100D800029813A8122553240D9F66DE770E080E042
:100D900090E00E947C02B4E1EB2EB2E0FB2E14E363
:100DA000C12E12E0D12E04E2A02E02E0B02E04E407
:100DB00012E0F80180810E5F1F4F60E00E94F80191
:100DC000F5018081F2E0AF0EB11C60E00E94F801F5
:100DD000F6018081F2E0CF0ED11C60E00E94F801A4
:100DE000F7018081F2E0EF0EF11C60E00E94F80153
:100DF00029813A8120173107E1F66DE770E080E044
:100E000090E00E947C0287E792E00E94480484E719
:100E100092E00E94480460E08DE00E94F80172EECA
:100E2000C72E72E0D72EE4EDEE2EE2E0FE2EFEEFAE
:100E30008F2EF2E09F2EA4E6AA2EA2E0BA2E1A82EE
:100E40001982F5018081F2E0AF0EB11C0E94CF0142
:100E50008C01F401819191914F010817190781F0DC
:100E60002FB7F89480910D0390910E03A0910F037A
:100E7000B09110032FBFF60180839183A283B383C7
:100E80002FB7F89480910D0390910E03A0910F035A
:100E9000B09110032FBFF601419151916191719171
:100EA0006F01841B950BA60BB70BC397A105B1056A
:100EB00008F467C0F701808191810817190709F4C8
:100EC00060C0118300830115110509F05AC06090BC
:100ED000D2027090D30229813A816216730609F416
:100EE00050C0409000025090010284E892E00E94BD
:100EF000480481E090E0409100025091010220916D
:100F0000D2023091D3024217530714F090E080E0F0
:100F10000E9455048FE892E00E94480489819A81DA
:100F20000E94550449815A815093D3024093D202C2
:100F300080910002909101028417950709F40DC178
:100F4000461457040CF003C1481759070CF405C1A7
:100F5000809100029091010229813A81281B390B6E
:100F6000C90137FF03C091958195910961E001970F
:100F700009F060E083E00E94F80161E08DE00E94EA
:100F8000F801F40132971183008349815A814F5F40
:100F90005F4F5A83498352E0E50EF11C89819A81A3
:100FA000079709F04ECF38EAC32E32E0D32E4AE934
:100FB000E42E42E0F42E54EC852E52E0952E64E5AA
:100FC000A62E62E0B62E1A821982F5018081F2E027
:100FD000AF0EB11C0E94CF018C01F401819191915F
:100FE0004F010817190781F02FB7F89480910D036E
:100FF00090910E03A0910F03B09110032FBFF60143
:1010000080839183A283B3832FB7F89480910D03DB
:1010100090910E03A0910F03B09110032FBFF60122
:1010200041915191619171916F01841B950BA60BB8
:10103000B70BC397A105B105D8F0F7018081918165
:1010400008171907A9F0118300830115110581F410
:10105000809100029091010229813A8182179307C1
:1010600009F07EC00E94030461E08DE00E94F80157
:10107000F40132971183008389819A8101969A83C2
:10108000898392E0E90EF11CE981FA81379709F032
:101090009CCF809100029091010297FD6BC020913E
:1010A000D2023091D3022817390709F463C00E9495
:1010B000150484E1A82E82E0B82E04E212E094E345
:1010C000E92E92E0F92E24E4C22E22E0D22E1A82DA
:1010D0001982F6018081F2E0CF0ED11CF7019080D9
:1010E000F2E0EF0EF11C2091D2023091D30249813F
:1010F0005A812417350709F040C061E00E94F801C9
:1011000061E0892D0E94F801F80180810E5F1F4F78
:10111000F5019080F2E0AF0EB11C209100023091F9
:10112000010249815A812417350761F561E00E9467
:10113000F80161E0892D0E94F80189819A81019668
:101140009A838983079729F60E94D20368CEE981A2
:10115000FA818E179F070CF0FBCE0E940304F8CE95
:1011600049815A815093010240930002CA010E94B2
:1011700015047ACF0E9403049CCF60E00E94F8011E
:1011800060E0BFCF60E00E94F80160E0D3CFE5E10E
:10119000F3E01382128288EE93E0A0E0B0E0848353
:1011A0009583A683B78386E092E09183808385EC64
:1011B00090E09587848784EC90E09787868780EC21
:1011C00090E0918B808B81EC90E0938B828B82EC12
:1011D00090E0958B848B86EC90E0978B868B118EBC
:1011E000128E138E148E0895EE0FFF1F881F8BBF73
:0C11F0000790F691E02D1994F894FFCFC1
:1011FC00FFFF000000006503CF02FC02B2032D03C9
:10120C000B031F030C001100150019001F00210017
:10121C004500350022002400260028002A002C005E
:10122C0030002E000A001000140018001E002000D0
:10123C004100330023002500270029002B002D003E
:10124C0031002F0009000F00130017001D001B00B8
:10125C003D00340008000E00120016001C001A009D
:10126C00390032000D0A00496E697469616C697A43
:10127C0065642E0072657665727365643A20004170
:0A128C007272697665643A20000072
:00000001FF
