:100000000C9435010C9466010C9466010C94660105
:100010000C9466010C9466010C9466010C946601C4
:100020000C9466010C9466010C9466010C946601B4
:100030000C9466010C9466010C9466010C946601A4
:100040000C9466010C9466010C9466010C94660194
:100050000C9466010C9466010C9466010C94B60431
:100060000C9466010C942A050C9400050C9466010E
:100070000C9466010C9466010C9466010C94660164
:100080000C9466010C9466010C9466010C94660154
:100090000C9466010C9466010C9466010C94660144
:1000A0000C9466010C9466010C9466010C94660134
:1000B0000C9466010C9466010C9466010C94660124
:1000C0000C9466010C9466010C9466010C94660114
:1000D0000C9466010C9466010C9466010C94660104
:1000E0000C9466010C94CB010C9450080C94B9014B
:1000F0000C9494010C94A1010C94AB010C940B038F
:100100000C94C1010C94AF010C94B3010C94C70181
:100110000C948C010C94C6010C9465030C9486011C
:100120000C941F030C9490010C94B2030C9498014E
:100130000C94BD010C94CF020C94A5010C94FC020C
:100140000C942D030C949B01000021002400270037
:100150002A002D00300033000101000004010701D6
:100160000A0100002200250028002B002E0031008B
:10017000340002010000050108010B01000020000D
:100180002300260029002C002F003200000100006F
:10019000030106010901050505050705080808080A
:1001A000020202020A0A080804040404010101010F
:1001B000010101010303030303030303040707070A
:1001C0000C0C0C0C0C0C0C0C0202020206060606AF
:1001D000060606060B0B0B0B0B0B0B0B010210207C
:1001E000200808102040102040800201020108046D
:1001F0000201010204081020408080402010080401
:100200000201800402018040201008040201080459
:10021000020101020408102040800102040810209D
:10022000408000000A0B02090C0D0E0807030401B0
:1002300000000000000000000000000000000000BE
:10024000000000000000000000000000000012118B
:10025000100000000000000000000000000000008E
:100260000000000000000000500811241FBECFEF66
:10027000D1E2DEBFCDBF00E00CBF12E0A0E0B2E0F3
:10028000E2E5F1E100E00BBF02C007900D92A23859
:10029000B107D9F723E0A2E8B2E001C01D92AA326B
:1002A000B207E1F711E0C5E3D1E000E006C0219715
:1002B0000109802FFE010E949F08C433D10780E00E
:1002C0000807A9F70E9460050C94A7080C94000089
:1002D0008150823108F05AC0E82FF0E08827EC58AE
:1002E000FE4F8F4F0C949F089401980186018C015A
:1002F0009001C6019B01A101A501AB01AF01B301B2
:10030000B901BD01C601C101C701CB0180918000C7
:100310008F77809380000895809180008F7DF9CF42
:1003200080918000877FF5CF84B58F7784BD089555
:1003300084B58F7DFBCF8091B0008F778093B00024
:1003400008958091B0008F7DF9CF809190008F77D4
:10035000809390000895809190008F7DF9CF8091D7
:100360009000877FF5CF8091A0008F778093A000C9
:1003700008958091A0008F7DF9CF8091A000877FA4
:10038000F5CF809120018F7780932001089580918F
:1003900020018F7DF9CF80912001877FF5CFCF930A
:1003A000DF93282F30E0F901EE5DFD4F8491F901D4
:1003B000E452FE4FD491F901EA56FE4FC491CC238A
:1003C000A1F081110E946801EC2FF0E0EE0FFF1FF9
:1003D000E458FE4FA591B491EC91ED2381E090E0BB
:1003E00009F480E0DF91CF91089580E090E0FACFAA
:1003F0001F93CF93DF93282F30E0F901EE5DFD4F7F
:100400008491F901E452FE4FD491F901EA56FE4F6E
:10041000C491CC23A9F0162F81110E946801EC2F02
:10042000F0E0EE0FFF1FEE59FE4FA591B4918FB78C
:10043000F894EC91111108C0D095DE23DC938FBFA6
:10044000DF91CF911F910895DE2BF8CFCF93DF93EB
:1004500090E0FC01E452FE4F24918A569E4FFC012D
:1004600084918823D1F090E0880F991FFC01E85B0C
:10047000FE4FA591B491FC01EE59FE4FC591D49168
:10048000623071F49FB7F8943C91822F809583235A
:100490008C93E8812E2B28839FBFDF91CF91089505
:1004A0008FB7F894EC912E2B2C938FBFF6CF3FB7DC
:1004B000F8948091890290918A02A0918B02B09168
:1004C0008C0226B5A89B05C02F3F19F00196A11DEF
:1004D000B11D3FBFBA2FA92F982F8827BC01CD018E
:1004E000620F711D811D911D42E0660F771F881FED
:1004F000991F4A95D1F708958F929F92AF92BF921C
:10050000CF92DF92EF92FF926B017C010E94570223
:100510004B015C01C114D104E104F104B9F00E9463
:100520005702681979098A099B09683E7340810559
:10053000910580F321E0C21AD108E108F10888EEA4
:10054000880E83E0981EA11CB11CE4CFFF90EF90B1
:10055000DF90CF90BF90AF909F908F900895CF93F2
:10056000C82F60E070E0CB010E947C0261E08C2F1C
:100570000E94F8016DE770E080E090E00E947C024C
:1005800060E08C2F0E94F8016DE770E080E090E061
:100590000E947C0260E08C2FCF910C94F801AF9206
:1005A000BF92CF92DF92EF92FF920F931F93CF9360
:1005B000DF936C017B018B01040F151FEB015E01C2
:1005C000AE18BF08C017D10759F06991D601ED9157
:1005D000FC910190F081E02DC6011995892B79F7E6
:1005E000C501DF91CF911F910F91FF90EF90DF90A8
:1005F000CF90BF90AF900895FC01538D448D252F6F
:1006000030E0842F90E0821B930B541710F0CF96AC
:10061000089501970895FC01918D828D981761F0DE
:10062000A28DAE0FBF2FB11D5D968C91928D9F5FF5
:100630009F73928F90E008958FEF9FEF0895FC01D4
:10064000918D828D981731F0828DE80FF11D858D87
:1006500090E008958FEF9FEF0895FC01918D228D1A
:10066000892F90E0805C9F4F821B91098F7399279F
:1006700008958DE892E00E942D0321E0892B09F472
:1006800020E0822F0895FC01A48DA80FB92FB11D81
:10069000A35ABF4F2C91848D90E001968F739927B8
:1006A000848FA689B7892C93A089B1898C91837096
:1006B00080648C93938D848D981306C00288F3898F
:1006C000E02D80818F7D80830895EF92FF920F93BC
:1006D0001F93CF93DF93EC0181E0888F9B8D8C8DEE
:1006E00098131AC0E889F989808185FF15C09FB7E2
:1006F000F894EE89FF896083E889F98980818370A5
:10070000806480839FBF81E090E0DF91CF911F9153
:100710000F91FF90EF900895F62E0B8D10E00F5F74
:100720001F4F0F731127E02E8C8D8E110CC00FB64A
:1007300007FCFACFE889F989808185FFF5CFCE01E2
:100740000E944303F1CFEB8DEC0FFD2FF11DE35A17
:10075000FF4FF0829FB7F8940B8FEA89FB89808165
:100760008062CFCFCF93DF93EC01888D8823B9F0DF
:10077000AA89BB89E889F9898C9185FD03C08081AC
:1007800086FD0DC00FB607FCF7CF8C9185FFF2CF29
:10079000808185FFEDCFCE010E944303E9CFDF9139
:1007A000CF91089580E090E0892B29F00E943903D1
:1007B00081110E94000080E090E0892B49F080E0E8
:1007C00090E0892B29F00E94000081110E94000016
:1007D00080E090E0892B49F080E090E0892B29F0BF
:1007E0000E94000081110E94000080E090E0892BAF
:1007F00049F080E090E0892B29F00E9400008111EF
:100800000C9400000895CF93DF93409182025091A1
:1008100083022091000230910102BA01621B730B26
:100820009B0177FF03C0319521953109D1E021303B
:10083000310509F0D0E0C1E04817590709F4C0E0DC
:1008400061E0841795070CF060E084E00E94F801F5
:100850006D2F83E00E94F8016C2F82E0DF91CF9131
:100860000C94F8018FEF9FEF9093010280930002A8
:1008700060E084E00E94F80160E083E00E94F801FB
:1008800060E082E00C94F801FC0101900020E9F79F
:100890003197AF01481B590BBC018DE892E00C94D5
:1008A000CF028F929F92AF92BF920F931F93CF93DD
:1008B000DF93CDB7DEB7A1970FB6F894DEBF0FBEBA
:1008C000CDBF19A2423008F44AE08E010F5D1F4FE0
:1008D000842E912CB12CA12CA50194010E947D089D
:1008E000E62FB901CA01EA30F4F4E05DD801EE93D5
:1008F0008D01232B242B252B79F790E080E0109796
:1009000019F0CD010E944404A1960FB6F894DEBF01
:100910000FBECDBFDF91CF911F910F91BF90AF90D0
:100920009F908F900895E95CE1CFCF92DF92EF9294
:10093000FF92CF93DF936B017C016DE28DE892E033
:100940000E946503EC0166277727CB016C197D09AE
:100950008E099F094AE00E9451048C0F9D1FDF9170
:10096000CF91FF90EF90DF90CF9008951F920F925C
:100970000FB60F9211242F933F938F939F93AF93B2
:10098000BF938091850290918602A0918702B091D9
:1009900088023091840223E0230F2D3758F5019609
:1009A000A11DB11D2093840280938502909386023D
:1009B000A0938702B09388028091890290918A0265
:1009C000A0918B02B0918C020196A11DB11D809364
:1009D000890290938A02A0938B02B0938C02BF91FC
:1009E000AF919F918F913F912F910F900FBE0F90DC
:1009F0001F90189526E8230F0296A11DB11DD2CF96
:100A00001F920F920FB60F9211240BB60F922F93D5
:100A10003F934F935F936F937F938F939F93AF9386
:100A2000BF93EF93FF938DE892E00E944303FF9101
:100A3000EF91BF91AF919F918F917F916F915F9156
:100A40004F913F912F910F900BBE0F900FBE0F90C3
:100A50001F9018951F920F920FB60F9211240BB68C
:100A60000F922F938F939F93EF93FF93E0919D02AB
:100A7000F0919E028081E091A302F091A40282FD98
:100A80001DC090818091A6028F5F8F732091A70275
:100A9000821741F0E091A602F0E0E357FD4F958FF9
:100AA0008093A602FF91EF919F918F912F910F90CC
:100AB0000BBE0F900FBE0F901F9018958081F2CF44
:100AC000789484B5826084BD84B5816084BD85B529
:100AD000826085BD85B5816085BD80916E00816035
:100AE00080936E00109281008091810082608093DB
:100AF00081008091810081608093810080918000DD
:100B00008160809380008091B10084608093B10007
:100B10008091B00081608093B000809191008260EC
:100B200080939100809191008160809391008091E9
:100B300090008160809390008091A10082608093FA
:100B4000A1008091A10081608093A1008091A0000C
:100B500081608093A00080912101826080932101B7
:100B60008091210181608093210180912001816029
:100B70008093200180917A00846080937A00809134
:100B80007A00826080937A0080917A0081608093FD
:100B90007A0080917A00806880937A001092C10078
:100BA000E0919D02F0919E0282E08083E0919902A3
:100BB000F0919A021082E0919B02F0919C0280E1F8
:100BC00080831092A502E091A102F091A20286E03A
:100BD0008083E0919F02F091A002808180618083F8
:100BE000E0919F02F091A002808188608083E09173
:100BF0009F02F091A002808180688083E0919F0233
:100C0000F091A00280818F7D808361E08DE00E9461
:100C1000260261E08DE00E94F80161E082E00E941E
:100C2000260260E082E00E94F80161E083E00E9419
:100C3000260261E084E00E942602C4E1D2E00CE2D8
:100C400012E0F0E2EF2EF2E0FF2EA8E3CA2EA2E0BF
:100C5000DA2EB4E4AB2EB2E0BB2E80E5882E82E023
:100C6000982EF4018081F2E08F0E911C62E00E94C8
:100C70002602F5018081F2E0AF0EB11C62E00E9415
:100C80002602F6018081F2E0CF0ED11C61E00E94C5
:100C90002602F7018081F2E0EF0EF11C61E00E9474
:100CA0002602F80180810E5F1F4F61E00E9426023C
:100CB0008881229661E00E942602FCE58F16F2E010
:100CC0009F0679F683E290E00E94AF0285E290E011
:100CD0000E94AF0287E290E00E94AF0289E290E0BA
:100CE0000E94AF028BE290E00E94AF028DE290E0A2
:100CF0000E94AF0282E290E00E94AF0284E290E0A4
:100D00000E94AF0286E290E00E94AF0288E290E08B
:100D10000E94AF028AE290E00E94AF028CE290E073
:100D20000E94AF028AE090E00E94AF0280E190E072
:100D30000E94AF0284E190E00E94AF0288E190E05F
:100D40000E94AF028EE190E00E94AF0280E290E04C
:100D50000E94AF028BE090E00E94AF0281E190E040
:100D60000E94AF0285E190E00E94AF0289E190E02D
:100D70000E94AF028FE190E00E94AF0281E290E01A
:100D80000E94AF0204E112E07CE2E72E72E0F72E4F
:100D9000E0E2CE2EE2E0DE2EC8E3D2E088812296A9
:100DA00061E00E94F801F6018081F2E0CF0ED11CD3
:100DB00061E00E94F801F7018081F2E0EF0EF11C82
:100DC00061E00E94F801F80180810E5F1F4F61E031
:100DD0000E94F801F2E0C434DF0701F768EC70E02C
:100DE00080E090E00E947C0204E112E05CE2E52EEB
:100DF00052E0F52E60E2C62E62E0D62EC8E3D2E0C5
:100E00008881229660E00E94F801F6018081F2E07C
:100E1000CF0ED11C60E00E94F801F7018081F2E062
:100E2000EF0EF11C60E00E94F801F80180810E5F76
:100E30001F4F60E00E94F801F2E0C434DF0701F7C1
:100E400068EC70E080E090E00E947C028CE592E02B
:100E50000E94440489E692E00E94440460E08DE030
:100E60000E94F80160E08DE00E94F80100E512E0C8
:100E7000412C512C3201912C812CE201F80180810E
:100E80000E5F1F4F0E94CF01892B09F064C0E090D4
:100E90000002F0900102C0908202D09083028CE6A2
:100EA00092E00E94440461E070E080E090E02091D4
:100EB0000002309101024091820250918302241776
:100EC00035071CF060E070E0CB014AE00E9451045D
:100ED00089E692E00E94440487E792E00E9444047D
:100EE0004AE0C301B2010E94510489E692E00E94E7
:100EF0004404D0938302C0938202809100029091B7
:100F000001028C179D0709F4B3C0EC14FD040CF02A
:100F1000ABC0C817D9070CF4ABC0E0900002F0904A
:100F20000102CE018E199F0997FF03C0919581950B
:100F3000910961E0019709F060E083E00E94F80107
:100F400061E08DE00E94F801CE15DF0521F048EE4A
:100F5000842E43E0942EFFEF4F1A5F0A6F0A7F0A38
:100F600086E0481651046104710409F086CF04E458
:100F700012E0D0E0C0E0F80180810E5F1F4F0E94B8
:100F8000CF01892B89F480910002909101028C1786
:100F90009D0709F070C00E94320461E08DE00E945C
:100FA000F8013AEF832E912C2196C630D10519F71E
:100FB000809100029091010297FD65C0209182020C
:100FC000309183028217930709F45DC00E940304E5
:100FD00084E1E82E82E0F82E90E2A92E92E0B92E6C
:100FE0002CE2C22E22E0D22E08E312E0D0E0C0E0D4
:100FF000F80180810E5F1F4FF6017080F2E0CF0E86
:10100000D11C2091820230918302C217D307F1F5DF
:1010100061E00E94F80161E0872D0E94F801F5016E
:101020008081F2E0AF0EB11CF7017080F2E0EF0EAC
:10103000F11C2091000230910102C217D30759F52B
:1010400061E00E94F80161E0872D0E94F80121967D
:10105000C630D10569F6B401990C880B990B0E9432
:101060007C020E94D203FECE8C179D070CF055CF58
:101070000E94320452CFD0930102C0930002CE01ED
:101080000E9403048ACF0E943204A2CF60E00E9433
:10109000F80160E0C1CF60E00E94F80160E0D4CFC9
:1010A000EDE8F2E01382128288EE93E0A0E0B0E077
:1010B00084839583A683B78386E092E091838083BF
:1010C00085EC90E09587848784EC90E0978786870D
:1010D00080EC90E0918B808B81EC90E0938B828B05
:1010E00082EC90E0958B848B86EC90E0978B868BDE
:1010F000118E128E138E148E0895A1E21A2EAA1B41
:10110000BB1BFD010DC0AA1FBB1FEE1FFF1FA217B7
:10111000B307E407F50720F0A21BB30BE40BF50BB4
:10112000661F771F881F991F1A9469F7609570953D
:10113000809590959B01AC01BD01CF010895EE0F04
:10114000FF1F881F8BBF0790F691E02D1994F8942C
:02115000FFCFCF
:10115200FFFF000000006503CF02FC02B2032D0373
:101162000B031F030B001100150019001F002100C3
:1011720022002400260028002A002C000A00100069
:10118200140018001E00200023002500270029005B
:101192002B002D0009000F00130017001D001B007B
:1011A20008000E00120016001C001A00496E697435
:1011B20069616C697A65642E000D0A007265766554
:1011C200727365643A2000417272697665643A20EE
:0211D20000001B
:00000001FF
