:100000000C9435010C9466010C9466010C94660105
:100010000C9466010C9466010C9466010C946601C4
:100020000C9466010C9466010C9466010C946601B4
:100030000C9466010C9466010C9466010C946601A4
:100040000C9466010C9466010C9466010C94660194
:100050000C9466010C9466010C9466010C941605D0
:100060000C9466010C94E0040C94B6040C946601A4
:100070000C9466010C9466010C9466010C94660164
:100080000C9466010C9466010C9466010C94660154
:100090000C9466010C9466010C9466010C94660144
:1000A0000C9466010C9466010C9466010C94660134
:1000B0000C9466010C9466010C9466010C94660124
:1000C0000C9466010C9466010C9466010C94660114
:1000D0000C9466010C9466010C9466010C94660104
:1000E0000C9466010C94D5020C9495010C94FF02BB
:1000F0000C94E3020C94DF020C94D9020C94BA0223
:100100000C94FE010C94C0020C94C8020C942A08B2
:100110000C94FB020C944B020C9468010C94F502B5
:100120000C94F1020C94FA020C94CF020C94B801D6
:100130000C94ED020C94A4010C94C6010C94E702FB
:100140000C94C4020C94CC0200002100240027006F
:100150002A002D00300033000101000004010701D6
:100160000A0100002200250028002B002E0031008B
:10017000340002010000050108010B01000020000D
:100180002300260029002C002F003200000100006F
:10019000030106010901050505050705080808080A
:1001A000020202020A0A080804040404010101010F
:1001B000010101010303030303030303040707070A
:1001C0000C0C0C0C0C0C0C0C0202020206060606AF
:1001D000060606060B0B0B0B0B0B0B0B010210207C
:1001E000200808102040102040800201020108046D
:1001F0000201010204081020408080402010080401
:100200000201800402018040201008040201080459
:10021000020101020408102040800102040810209D
:10022000408000000A0B02090C0D0E0807030401B0
:1002300000000000000000000000000000000000BE
:10024000000000000000000000000000000012118B
:10025000100000000000000000000000000000008E
:1002600000000000000000002A0811241FBECFEF8C
:10027000D1E2DEBFCDBF00E00CBF12E0A0E0B2E0F3
:10028000E6E0F1E100E00BBF02C007900D92AA3951
:10029000B107D9F723E0AAE9B2E001C01D92A23468
:1002A000B207E1F711E0C5E3D1E000E006C0219715
:1002B0000109802FFE010E947908C433D10780E034
:1002C0000807A9F70E9460050C9481080C940000AF
:1002D000AF92BF92CF92DF92EF92FF920F931F9354
:1002E000CF93DF936C017B018B01040F151FEB0192
:1002F0005E01AE18BF08C017D10759F06991D60149
:10030000ED91FC910190F081E02DC6011995892BAA
:1003100079F7C501DF91CF911F910F91FF90EF9079
:10032000DF90CF90BF90AF900895FC01538D448D26
:10033000252F30E0842F90E0821B930B541710F090
:10034000CF96089501970895FC01918D828D98179D
:1003500061F0A28DAE0FBF2FB11D5D968C91928D75
:100360009F5F9F73928F90E008958FEF9FEF0895A6
:10037000FC01918D828D981731F0828DE80FF11D6F
:10038000858D90E008958FEF9FEF0895FC01918D8A
:10039000228D892F90E0805C9F4F821B91098F7383
:1003A0009927089585EA92E00E94C60121E0892BF1
:1003B00009F420E0822F0895FC01A48DA80FB92F25
:1003C000B11DA35ABF4F2C91848D90E001968F737D
:1003D0009927848FA689B7892C93A089B1898C919C
:1003E000837080648C93938D848D981306C00288EB
:1003F000F389E02D80818F7D80830895EF92FF92B5
:100400000F931F93CF93DF93EC0181E0888F9B8D37
:100410008C8D98131AC0E889F989808185FF15C0F1
:100420009FB7F894EE89FF896083E889F989808114
:100430008370806480839FBF81E090E0DF91CF91E3
:100440001F910F91FF90EF900895F62E0B8D10E005
:100450000F5F1F4F0F731127E02E8C8D8E110CC074
:100460000FB607FCFACFE889F989808185FFF5CFBF
:10047000CE010E94DC01F1CFEB8DEC0FFD2FF11DC1
:10048000E35AFF4FF0829FB7F8940B8FEA89FB89FC
:1004900080818062CFCFCF93DF93EC01888D88235A
:1004A000B9F0AA89BB89E889F9898C9185FD03C0D7
:1004B000808186FD0DC00FB607FCF7CF8C9185FFBC
:1004C000F2CF808185FFEDCFCE010E94DC01E9CF24
:1004D000DF91CF91089580E090E0892B29F00E9470
:1004E000D20181110E94000080E090E0892B49F048
:1004F00080E090E0892B29F00E94000081110E9489
:10050000000080E090E0892B49F080E090E0892BAA
:1005100029F00E94000081110E94000080E090E01C
:10052000892B49F080E090E0892B29F00E9400009F
:1005300081110C94000008958150823108F05AC056
:10054000E82FF0E08827E855FD4F8F4F0C9479088D
:10055000C802CC02BA02C002C402FA02CF02D5021B
:10056000D902DF02E302E702ED02F102FA02F5022C
:10057000FB02FF02809180008F77809380000895B6
:10058000809180008F7DF9CF80918000877FF5CFAB
:1005900084B58F7784BD089584B58F7DFBCF80911E
:1005A000B0008F778093B00008958091B0008F7D68
:1005B000F9CF809190008F7780939000089580917B
:1005C00090008F7DF9CF80919000877FF5CF80914B
:1005D000A0008F778093A00008958091A0008F7D68
:1005E000F9CF8091A000877FF5CF809120018F7790
:1005F000809320010895809120018F7DF9CF809113
:100600002001877FF5CFCF93DF93282F30E0F901CA
:10061000EE5DFD4F8491F901E452FE4FD491F90152
:10062000EA56FE4FC491CC23A1F081110E949C0296
:10063000EC2FF0E0EE0FFF1FE458FE4FA591B491B0
:10064000EC91ED2381E090E009F480E0DF91CF911F
:10065000089580E090E0FACF1F93CF93DF93282F87
:1006600030E0F901EE5DFD4F8491F901E452FE4F57
:10067000D491F901EA56FE4FC491CC23A9F0162F6C
:1006800081110E949C02EC2FF0E0EE0FFF1FEE594B
:10069000FE4FA591B4918FB7F894EC91111108C059
:1006A000D095DE23DC938FBFDF91CF911F9108950A
:1006B000DE2BF8CFCF93DF9390E0FC01E452FE4FA6
:1006C00024918A569E4FFC0184918823D1F090E0BA
:1006D000880F991FFC01E85BFE4FA591B491FC01C6
:1006E000EE59FE4FC591D491623071F49FB7F894E2
:1006F0003C91822F809583238C93E8812E2B288335
:100700009FBFDF91CF9108958FB7F894EC912E2B76
:100710002C938FBFF6CF3FB7F89480919F029091B2
:10072000A002A091A102B091A20226B5A89B05C08B
:100730002F3F19F00196A11DB11D3FBFBA2FA92F60
:10074000982F8827BC01CD01620F711D811D911D5D
:1007500042E0660F771F881F991F4A95D1F70895C9
:100760008F929F92AF92BF92CF92DF92EF92FF92C1
:100770006B017C010E948B034B015C01C114D1040D
:10078000E104F104B9F00E948B03681979098A0920
:100790009B09683E73408105910580F321E0C21AF0
:1007A000D108E108F10888EE880E83E0981EA11CAC
:1007B000B11CE4CFFF90EF90DF90CF90BF90AF904F
:1007C0009F908F900895CF93C82F60E070E0CB0189
:1007D0000E94B00361E08C2F0E942C036DE770E053
:1007E00080E090E00E94B00360E08C2F0E942C0318
:1007F0006DE770E080E090E00E94B00360E08C2F35
:10080000CF910C942C03CF93DF934091A30250918E
:10081000A4022091000230910102BA01621B730B05
:100820009B0177FF03C0319521953109D1E021303B
:10083000310509F0D0E0C1E04817590709F4C0E0DC
:1008400061E0841795070CF060E084E00E942C03BF
:100850006D2F83E00E942C036C2F82E0DF91CF91FB
:100860000C942C038FEF9FEF909301028093000272
:1008700060E084E00E942C0360E083E00E942C038F
:1008800060E082E00C942C03FC0101900020E9F769
:100890003197AF01481B590BBC0185EA92E00C94DB
:1008A00068018F929F92AF92BF920F931F93CF9345
:1008B000DF93CDB7DEB7A1970FB6F894DEBF0FBEBA
:1008C000CDBF19A2423008F44AE08E010F5D1F4FE0
:1008D000842E912CB12CA12CA50194010E945708C3
:1008E000E62FB901CA01EA30F4F4E05DD801EE93D5
:1008F0008D01232B242B252B79F790E080E0109796
:1009000019F0CD010E944404A1960FB6F894DEBF01
:100910000FBECDBFDF91CF911F910F91BF90AF90D0
:100920009F908F900895E95CE1CFCF92DF92EF9294
:10093000FF92CF93DF936B017C016DE285EA92E039
:100940000E94FE01EC0166277727CB016C197D0917
:100950008E099F094AE00E9451048C0F9D1FDF9170
:10096000CF91FF90EF90DF90CF9008951F920F925C
:100970000FB60F9211240BB60F922F933F934F9304
:100980005F936F937F938F939F93AF93BF93EF93F7
:10099000FF9385EA92E00E94DC01FF91EF91BF9105
:1009A000AF919F918F917F916F915F914F913F9107
:1009B0002F910F900BBE0F900FBE0F901F901895A8
:1009C0001F920F920FB60F9211240BB60F922F9316
:1009D0008F939F93EF93FF93E091B502F091B6024E
:1009E0008081E091BB02F091BC0282FD1DC090812C
:1009F0008091BE028F5F8F732091BF02821741F0FA
:100A0000E091BE02F0E0EB55FD4F958F8093BE0262
:100A1000FF91EF919F918F912F910F900BBE0F90AF
:100A20000FBE0F901F9018958081F2CF1F920F92EA
:100A30000FB60F9211242F933F938F939F93AF93F1
:100A4000BF9380919B0290919C02A0919D02B091D6
:100A50009E0230919A0223E0230F2D3758F501961C
:100A6000A11DB11D20939A0280939B0290939C023A
:100A7000A0939D02B0939E0280919F029091A0024C
:100A8000A091A102B091A2020196A11DB11D809377
:100A90009F029093A002A093A102B093A202BF91E3
:100AA000AF919F918F913F912F910F900FBE0F901B
:100AB0001F90189526E8230F0296A11DB11DD2CFD5
:100AC000789484B5826084BD84B5816084BD85B529
:100AD000826085BD85B5816085BD80916E00816035
:100AE00080936E00109281008091810082608093DB
:100AF00081008091810081608093810080918000DD
:100B00008160809380008091B10084608093B10007
:100B10008091B00081608093B000809191008260EC
:100B200080939100809191008160809391008091E9
:100B300090008160809390008091A10082608093FA
:100B4000A1008091A10081608093A1008091A0000C
:100B500081608093A00080912101826080932101B7
:100B60008091210181608093210180912001816029
:100B70008093200180917A00846080937A00809134
:100B80007A00826080937A0080917A0081608093FD
:100B90007A0080917A00806880937A001092C10078
:100BA000E091B502F091B60282E08083E091B1025B
:100BB000F091B2021082E091B302F091B40280E1B0
:100BC00080831092BD02E091B902F091BA0286E0F2
:100BD0008083E091B702F091B802808180618083C8
:100BE000E091B702F091B802808188608083E09143
:100BF000B702F091B802808180688083E091B702EB
:100C0000F091B80280818F7D808361E08DE00E9449
:100C10005A0361E08DE00E942C0361E082E00E94B3
:100C20005A0360E082E00E942C0361E083E00E94AE
:100C30005A0361E084E00E945A03C4E1D2E004E375
:100C400012E084E2E82E82E0F82E94E4C92E92E0CD
:100C5000D92E24E5A22E22E0B22E34E6832E32E0F5
:100C6000932EF4018081F2E08F0E911C62E00E94CD
:100C70005A03F5018081F2E0AF0EB11C62E00E94E0
:100C80005A03F6018081F2E0CF0ED11C61E00E9490
:100C90005A03F7018081F2E0EF0EF11C61E00E943F
:100CA0005A03F80180810E5F1F4F61E00E945A03D2
:100CB0008881229661E00E945A03F4E78F16F2E0E1
:100CC0009F0679F6C4E5D2E004E412E0F8018191D0
:100CD00091918F010E94E303C017D107B9F7D4E3C4
:100CE000ED2ED2E0FD2EC4E2D2E0899199910E94CE
:100CF000E303EC16FD06C9F7C4E4EC2EC2E0FC2EBB
:100D0000C4E3D2E0899199910E94E303EC16FD06B9
:100D1000C9F7B4E2EB2EB2E0FB2EC4E1D2E0899138
:100D200099910E94E303EC16FD06C9F7E4E1EE2E6B
:100D3000E2E0FE2EF4E3CF2EF2E0DF2EA4E2AA2EB4
:100D4000A2E0BA2EC4E4D2E08881229661E00E943B
:100D50002C03F5018081F2E0AF0EB11C61E00E942E
:100D60002C03F6018081F2E0CF0ED11C61E00E94DD
:100D70002C03F7018081F2E0EF0EF11C61E00E948C
:100D80002C03C017D10701F768EC70E080E090E019
:100D90000E94B00354E1E52E52E0F52E64E3C62E26
:100DA00062E0D62E74E2A72E72E0B72E04E412E0C1
:100DB000F80180810E5F1F4F60E00E942C03F50157
:100DC0008081F2E0AF0EB11C60E00E942C03F601BE
:100DD0008081F2E0CF0ED11C60E00E942C03F7016D
:100DE0008081F2E0EF0EF11C60E00E942C03C0173E
:100DF000D107F1F668EC70E080E090E00E94B0036B
:100E000084E792E00E94440481E892E00E94440456
:100E100060E08DE00E942C0360E08DE00E942C03D6
:100E200004E612E0412C512C3201912C812CE2017C
:100E3000F80180810E5F1F4F0E940303892B09F088
:100E400064C0E0900002F0900102C090A302D09034
:100E5000A40284E892E00E94440461E070E080E033
:100E600090E020910002309101024091A302509144
:100E7000A402241735071CF060E070E0CB014AE0C3
:100E80000E94510481E892E00E9444048FE892E0BD
:100E90000E9444044AE0C301B2010E94510481E867
:100EA00092E00E944404D093A402C093A3028091D4
:100EB0000002909101028C179D0709F4B3C0EC1455
:100EC000FD040CF0ABC0C817D9070CF4ABC0E09020
:100ED0000002F0900102CE018E199F0997FF03C016
:100EE00091958195910961E0019709F060E083E0B7
:100EF0000E942C0361E08DE00E942C03CE15DF05DB
:100F000021F048EE842E43E0942EFFEF4F1A5F0A43
:100F10006F0A7F0A88E0481651046104710409F0E1
:100F200086CF04E512E0D0E0C0E0F80180810E5FDA
:100F30001F4F0E940303892B89F480910002909136
:100F400001028C179D0709F070C00E94320461E015
:100F50008DE00E942C033AEF832E912C2196C8300D
:100F6000D10519F7809100029091010297FD65C0AB
:100F70002091A3023091A4028217930709F45DC067
:100F80000E94030484E1C82E82E0D82E94E2A92EA8
:100F900092E0B92E24E3E22E22E0F22E04E412E0E5
:100FA000D0E0C0E0F80180810E5F1F4FF701708034
:100FB000F2E0EF0EF11C2091A3023091A402C217BF
:100FC000D307F1F561E00E942C0361E0872D0E94B8
:100FD0002C03F5018081F2E0AF0EB11CF6017080A8
:100FE000F2E0CF0ED11C2091000230910102C21715
:100FF000D30759F561E00E942C0361E0872D0E9420
:101000002C032196C830D10569F6B401990C880BE0
:10101000990B0E94B0030E946B02FECE8C179D07B5
:101020000CF055CF0E94320452CFD0930102C093EE
:101030000002CE010E9403048ACF0E943204A2CF94
:1010400060E00E942C0360E0C1CF60E00E942C03AE
:1010500060E0D4CFE5EAF2E01382128288EE93E0FA
:10106000A0E0B0E084839583A683B78386E092E016
:101070009183808385EC90E09587848784EC90E071
:101080009787868780EC90E0918B808B81EC90E055
:10109000938B828B82EC90E0958B848B86EC90E036
:1010A000978B868B118E128E138E148E0895A1E26B
:1010B0001A2EAA1BBB1BFD010DC0AA1FBB1FEE1FD2
:1010C000FF1FA217B307E407F50720F0A21BB30B1D
:1010D000E40BF50B661F771F881F991F1A9469F799
:1010E00060957095809590959B01AC01BD01CF01F5
:1010F0000895EE0FFF1F881F8BBF0790F691E02D1C
:061100001994F894FFCFE2
:10110600FFFF00000000FE01680195014B02C601C9
:10111600A401B8010B001100150019001F002100E1
:101126003500450022002400260028002A002C0055
:101136002E0030000A001000140018001E002000C7
:101146003300410023002500270029002B002D0035
:101156002F00310009000F00130017001D001B00AF
:1011660034003D0008000E00120016001C001A0094
:1011760032003900496E697469616C697A65642E5A
:10118600000D0A0072657665727365643A20004147
:0A1196007272697665643A20000069
:00000001FF
